:1000000012C02CC02BC02AC029C028C027C026C0BF
:100010006DC124C023C022C021C020C0EAC01EC0C0
:100020001DC01CC01BC011241FBECFE5D4E0DEBF25
:10003000CDBF10E0A0E6B0E0E8EEFCE002C0059025
:100040000D92A639B107D9F720E0A6E9B0E001C0CA
:100050001D92AF39B207E1F744D444C6D1CF88E44A
:1000600080B984E086BF089584EA86BF06B607FE9D
:10007000FDCF089584E986BF06B604FCFDCF089540
:10008000880F682B63B984E886BF06B607FEFDCFEC
:1000900081B1887F089583B984E886BF06B607FEDC
:1000A000FDCF81B1887F08951F93CF93DF93D82F21
:1000B000C62FDADF60E080919E00E2DF1C2F1D2B4F
:1000C00080919D00812BE7DFD5DFCEDF60E080915E
:1000D0009E00D6DF80919D008460812BDCDFCADF2B
:1000E0008FE891E00197F1F700C00000BDDF60E00C
:1000F00080919E00C5DFDB7FCD2B80919D008C2BF6
:10010000CADFB8DF8FE99FE00197F1F700C0000078
:10011000DF91CF911F910895CF93C82F60E0807F2A
:10012000C3DF60E08C2F8295807FBEDFCF91089582
:10013000CF93C82F94DF88E080939D008FE39CE9E4
:100140000197F1F700C00000C0939E0082E0E4DF59
:1001500088E2E2DF8CE0E0DF86E0DEDF81E0DCDF0A
:10016000CF910895CF93C82F61E0807F9DDF61E03C
:100170008C2F8295807F98DFCF910895CF93DF9366
:10018000EC018881882329F02196ECDF8991811187
:10019000FCCFDF91CF910895CF93DF93EA018130B7
:1001A00041F028F0823039F0833039F007C090E810
:1001B00005C090EC03C094E901C094ED862F8F70C8
:1001C000892BAADFCE01DADFDF91CF9108953E9A25
:1001D00086B18F6886B978940895339897B1907FE7
:1001E0008F70892B87B9369A3699FECF84B195B135
:1001F00008951F920F920FB60F9211242F933F93E1
:100200004F935F936F937F938F939F93AF93BF931E
:10021000EF93FF9384B195B18C3B9240D0F4339827
:1002200089B78B7F89BF60919C0080E090E03AD5D0
:1002300060919B0081E090E035D560919A0082E06A
:1002400090E030D5609198007091990083E090E043
:1002500036D5369AFF91EF91BF91AF919F918F91D3
:100260007F916F915F914F913F912F910F900FBEB2
:100270000F901F90189587B1909160009F70807FBC
:10028000892B87B9339A369A089580919C008F5FA5
:100290008C3318F480939C00089510929C008091F8
:1002A0009B008F5F8C3318F480939B00089510920D
:1002B0009B0080919A008F5F883118F480939A0098
:1002C000089510929A00809198009091990001965B
:1002D000883E23E0920728F4909399008093980039
:1002E0000895109299001092980008951F920F920D
:1002F0000FB60F9211242F933F934F935F936F93F9
:100300007F938F939F93AF93BF93EF93FF938DEE64
:1003100095E89DBD8CBDB9DFFF91EF91BF91AF9185
:100320009F918F917F916F915F914F913F912F910D
:100330000F900FBE0F901F901895CF93DF9300D0B2
:10034000CDB7DEB780919C004AE0BE016F5F7F4F62
:1003500090E068D480919C008A3020F489818A835F
:1003600080E38983AE014F5F5F4F6EE081E014DF71
:100370000F900F90DF91CF910895CF93DF9300D02E
:10038000CDB7DEB780919B004AE0BE016F5F7F4F23
:1003900090E048D480919B008A3020F489818A8340
:1003A00080E38983AE014F5F5F4F6BE081E0F4DE55
:1003B0000F900F90DF91CF910895CF93DF9300D0EE
:1003C000CDB7DEB780919A004AE0BE016F5F7F4FE4
:1003D00090E028D480919A008A3020F489818A8321
:1003E00080E38983AE014F5F5F4F68E081E0D4DE38
:1003F0000F900F90DF91CF910895CF93DF9300D0AE
:100400001F92CDB7DEB74AE0BE016F5F7F4F80918C
:1004100098009091990006D480919800909199004D
:100420000A9758F447E750E063E081E0B5DEAE019B
:100430004F5F5F4F65E081E0AFDE80919800909163
:1004400099000A978A35910558F448E750E063E02F
:1004500081E0A2DEAE014F5F5F4F64E081E09CDE91
:100460008091980090919900845691098438934026
:1004700030F4AE014F5F5F4F63E081E08DDE0F909F
:100480000F900F90DF91CF910895CF93DF9300D01D
:100490001F92CDB7DEB741E650E062E080E07CDE3F
:1004A00085E090E0FAD390939700809396004AE01D
:1004B000BE016F5F7F4FB6D38091960090919700F9
:1004C0000A9758F447E750E063E080E065DEAE014C
:1004D0004F5F5F4F65E080E05FDE80919600909116
:1004E00097000A978A35910558F448E750E063E091
:1004F00080E052DEAE014F5F5F4F64E080E04CDE93
:100500008091960090919700845691098438934089
:1005100030F4AE014F5F5F4F63E080E03DDE43E6C5
:1005200050E067E080E038DE41E650E062E081E0E4
:1005300033DE83E090E0B1D39093990080939800EC
:100540005CDF4DE650E067E081E026DE82E090E08F
:100550009CD380939A0031DF4FE650E06AE081E05F
:100560001BDE81E090E091D380939B0006DF80E06A
:1005700090E08BD380939C004FE650E06DE081E0EB
:100580000BDEDBDE0F900F900F90DF91CF9108957F
:1005900080919C00811107C080919A00811101C057
:1005A0002CDF0BDFEADEC9DE08950F931F93CF9394
:1005B000DF931F92CDB7DEB7339882E0ADDD81E0E7
:1005C000ABDD41E750E061E080E0E6DD9999FECFE8
:1005D0002FEF80E792E0215080409040E1F700C08B
:1005E000000046E750E068E080E0D6DD45E950E0F5
:1005F0006AE081E0D1DD8DE08FDD80E0EEDDBC01E1
:1006000080E090E081D22DEC3CEC4CEC52E4E8D15F
:100610004FD2DC01CB018C014AE0BE016F5F7F4FFE
:1006200001D3AC0168E080E0B7DD45E950E068E067
:1006300081E0B2DD2FEF80E792E0215080409040D2
:10064000E1F700C00000999BD8CF24E6209FC001AD
:10065000219F900D11249093970080939600999973
:10066000FECF2FE78AE196E0215080409040E1F7ED
:1006700000C0000080E0B1DDBC0180E090E044D229
:100680002DEC3CEC4CEC52E4ABD112D2DC01CB01B2
:100690008C014AE0BE016F5F7F4FC4D2AC0169E0BC
:1006A00080E07ADD45E950E069E081E075DD2FEF1B
:1006B00080E792E0215080409040E1F700C00000C8
:1006C000999BD8CFC801880F991F000F111F000FE9
:1006D000111F000F111F080F191F80919600909194
:1006E0009700080F191F109397000093960099998F
:1006F000FECF2FE78AE196E0215080409040E1F75D
:1007000000C0000080E069DDBC0180E090E0FCD129
:100710002DEC3CEC4CEC52E463D1CAD1DC01CB01B2
:100720008C014AE0BE016F5F7F4F7CD2AC016AE072
:1007300080E032DD45E950E06AE081E02DDD2FEF19
:1007400080E792E0215080409040E1F700C0000037
:10075000999BD8CF8091960090919700080F191F10
:1007600010939700009396009999FECF2FE78AE1A6
:1007700096E0215080409040E1F700C0000060E02A
:1007800080E090E08FD260E081E090E08BD260E08A
:1007900082E090E087D260E070E083E090E08FD26A
:1007A000609196007091970085E090E088D28CE08F
:1007B000B3DC61DD0F90DF91CF911F910F91089510
:1007C000CF9360919C0080E090E06CD260919B00A0
:1007D00081E090E067D260919A0082E090E062D27E
:1007E000609198007091990083E090E068D28FEC5E
:1007F00097E00197F1F700C0000088EB9BE008C08C
:10080000EFECF7E03197F1F700C000000197E1F05D
:100810009999F6CFC0E031C0FFE72AE186E0F150B8
:1008200020408040E1F700C000004AE750E06C2F14
:1008300081E0B2DCCF5FC03121F09999EDCFC0E00B
:100840001CC0B3DEC1E019C082E066DC81E064DC7C
:100850004CE750E060E080E09FDC9FE7EAE1F6E0F3
:100860009150E040F040E1F700C000004AE750E05E
:1008700060E081E091DCC1E0E0CF82E04DDC81E02E
:100880004BDC03DE8C2FCF910895CF9389B78B7FFC
:1008900089BFC8E045E950E060E080E07DDC10926F
:1008A0009D002FEF89E698E1215080409040E1F7CC
:1008B00000C0000045E950E060E080E06DDCC093DE
:1008C0009D002FEF89E698E1215080409040E1F7AC
:1008D00000C00000999BDECF73DF8823D9F2CF914F
:1008E000089575DC83E079DC8C3B9240D8F3C3DC5F
:1008F00087E21EDC4CE850E064E080E04DDC8FEFE6
:1009000099E6E8E181509040E040E1F700C0000046
:1009100082E002DC81E000DCB8DDFFEF20E782E06E
:10092000F15020408040E1F700C0000089B78460AA
:1009300089BF8EB584608EBD8DEE95E89DBD8CBD62
:10094000A198B998C1E0D0E023DE999B44C038DF7C
:1009500042C0B19B0AC0AE01082E02C0440F551F11
:100960000A94E2F7242B352B0BC0AE01082E02C0EF
:10097000440F551F0A94E2F74095509524233523E0
:10098000EFE3FCE93197F1F700C0000001968031F8
:100990009105F9F6232B49F089B7846089BF4AE7AE
:1009A00050E060E081E0F8DB08C089B78B7F89BF49
:1009B00044E950E060E081E0EFDB20919800309165
:1009C000990080919600909197002817390708F4B4
:1009D000BBCF5BDFB9CF80E090E020E030E0B9CF63
:1009E0000CD0E6C0DED040F0D5D030F021F45F3F2F
:1009F00019F0C7C0511110C1CAC0EBD098F39923A8
:100A0000C9F35523B1F3951B550BBB27AA276217D2
:100A10007307840738F09F5F5F4F220F331F441F17
:100A2000AA1FA9F333D00E2E3AF0E0E830D091504F
:100A30005040E695001CCAF729D0FE2F27D0660F3C
:100A4000771F881FBB1F261737074807AB07B0E87B
:100A500009F0BB0B802DBF01FF2793585F4F2AF091
:100A60009E3F510568F08DC0D7C05F3FECF3983EC4
:100A7000DCF3869577956795B795F7959F5FC9F7EE
:100A8000880F911D9695879597F90895E1E0660F77
:100A9000771F881FBB1F621773078407BA0720F0F0
:100AA000621B730B840BBA0BEE1F88F7E095089559
:100AB00098D088F09F5790F0B92F9927B751A0F0A0
:100AC000D1F0660F771F881F991F1AF0BA95C9F7E2
:100AD00012C0B13081F09FD0B1E008959CC0672F63
:100AE000782F8827B85F39F0B93FCCF38695779592
:100AF0006795B395D9F73EF490958095709561957B
:100B00007F4F8F4F9F4F0895E89409C097FB3EF4A5
:100B100090958095709561957F4F8F4F9F4F99234A
:100B2000A9F0F92F96E9BB279395F69587957795C8
:100B30006795B795F111F8CFFAF4BB0F11F460FF88
:100B40001BC06F5F7F4F8F4F9F4F16C0882311F0E0
:100B500096E911C0772321F09EE8872F762F05C0F4
:100B6000662371F096E8862F70E060E02AF09A958F
:100B7000660F771F881FDAF7880F9695879597F984
:100B8000089597F99F6780E870E060E008959FEF0F
:100B900080EC089500240A94161617061806090614
:100BA000089500240A9412161306140605060895E3
:100BB000092E0394000C11F4882352F0BB0F40F46B
:100BC000BF2B11F460FF04C06F5F7F4F8F4F9F4FAB
:100BD000089557FD9058440F551F59F05F3F71F02D
:100BE0004795880F97FB991F61F09F3F79F0879594
:100BF0000895121613061406551FF2CF4695F1DF1D
:100C000008C0161617061806991FF1CF86957105AC
:100C1000610508940895E894BB2766277727CB01E0
:100C200097F90895BB274A3031F4992322F4BDE2A5
:100C3000909581959F4F01C0BB27FB015527AA279F
:100C4000880F991FAA1FA41710F0A41B8395505159
:100C5000B9F7A05DAA3308F0A95DA193009779F7D1
:100C6000B111B1931192CB0100C0DC01FC01672FDF
:100C700071917723E1F7329704C07C916D93708373
:100C80006291AE17BF07C8F30895E199FECF9FBBED
:100C90008EBBE09A99278DB30895A8E1B0E042E0B9
:100CA00050E012C0262FE199FECF9FBB8EBB2DBB1B
:100CB0000FB6F894E29AE19A0FBE01960895F2DF1A
:100CC000272FF1CFDC01CB01FC01E199FECF06C05B
:100CD000FFBBEEBBE09A31960DB20D9241505040F1
:080CE000B8F70895F894FFCF66
:100CE8000344004830303A30303A30300048003A57
:100CF800004461746500303030003E004D656D6F12
:100D0800727920436C656172696E67005445434887
:060D1800415254002000CE
:00000001FF
